{
  "contractName": "Samples",
  "abi": [
    {
      "inputs": [],
      "payable": false,
      "stateMutability": "nonpayable",
      "type": "constructor"
    },
    {
      "constant": true,
      "inputs": [],
      "name": "getContractTitle",
      "outputs": [
        {
          "name": "",
          "type": "string"
        }
      ],
      "payable": false,
      "stateMutability": "view",
      "type": "function"
    },
    {
      "constant": true,
      "inputs": [],
      "name": "getContractDescription",
      "outputs": [
        {
          "name": "",
          "type": "string"
        }
      ],
      "payable": false,
      "stateMutability": "view",
      "type": "function"
    },
    {
      "constant": true,
      "inputs": [],
      "name": "getContractOwnerAddress",
      "outputs": [
        {
          "name": "",
          "type": "address"
        }
      ],
      "payable": false,
      "stateMutability": "view",
      "type": "function"
    },
    {
      "constant": true,
      "inputs": [],
      "name": "getContractPriceToAddSample",
      "outputs": [
        {
          "name": "",
          "type": "uint256"
        }
      ],
      "payable": false,
      "stateMutability": "view",
      "type": "function"
    },
    {
      "constant": true,
      "inputs": [
        {
          "name": "sample_hash",
          "type": "uint256"
        }
      ],
      "name": "getSamplePrice",
      "outputs": [
        {
          "name": "",
          "type": "uint256"
        }
      ],
      "payable": false,
      "stateMutability": "view",
      "type": "function"
    },
    {
      "constant": true,
      "inputs": [
        {
          "name": "sample_hash",
          "type": "uint256"
        }
      ],
      "name": "getSampleOwner",
      "outputs": [
        {
          "name": "",
          "type": "address"
        }
      ],
      "payable": false,
      "stateMutability": "view",
      "type": "function"
    },
    {
      "constant": true,
      "inputs": [
        {
          "name": "sample_hash",
          "type": "uint256"
        }
      ],
      "name": "getSampleHistoric",
      "outputs": [
        {
          "name": "",
          "type": "address[]"
        }
      ],
      "payable": false,
      "stateMutability": "view",
      "type": "function"
    },
    {
      "constant": false,
      "inputs": [
        {
          "name": "_contract_title",
          "type": "string"
        }
      ],
      "name": "setContractTitle",
      "outputs": [],
      "payable": false,
      "stateMutability": "nonpayable",
      "type": "function"
    },
    {
      "constant": false,
      "inputs": [
        {
          "name": "_contract_description",
          "type": "string"
        }
      ],
      "name": "setContractDescription",
      "outputs": [],
      "payable": false,
      "stateMutability": "nonpayable",
      "type": "function"
    },
    {
      "constant": false,
      "inputs": [
        {
          "name": "_contract_owner_address",
          "type": "address"
        }
      ],
      "name": "setContractOwnerAddress",
      "outputs": [],
      "payable": false,
      "stateMutability": "nonpayable",
      "type": "function"
    },
    {
      "constant": false,
      "inputs": [
        {
          "name": "_contract_price_to_add_sample",
          "type": "uint256"
        }
      ],
      "name": "setContractPriceToAddSample",
      "outputs": [],
      "payable": false,
      "stateMutability": "nonpayable",
      "type": "function"
    },
    {
      "constant": false,
      "inputs": [
        {
          "name": "sample_hash",
          "type": "uint256"
        },
        {
          "name": "_sample_price",
          "type": "uint256"
        }
      ],
      "name": "setSamplePrice",
      "outputs": [],
      "payable": false,
      "stateMutability": "nonpayable",
      "type": "function"
    },
    {
      "constant": false,
      "inputs": [
        {
          "name": "sample_hash",
          "type": "uint256"
        },
        {
          "name": "_sample_price",
          "type": "uint256"
        }
      ],
      "name": "addSampleOwner",
      "outputs": [],
      "payable": true,
      "stateMutability": "payable",
      "type": "function"
    },
    {
      "constant": false,
      "inputs": [
        {
          "name": "sample_hash",
          "type": "uint256"
        }
      ],
      "name": "buySample",
      "outputs": [],
      "payable": true,
      "stateMutability": "payable",
      "type": "function"
    }
  ],
  "bytecode": "0x60806040523480156200001157600080fd5b5033600260006101000a81548173ffffffffffffffffffffffffffffffffffffffff021916908373ffffffffffffffffffffffffffffffffffffffff1602179055506040518060400160405280601d81526020017f546974756c6f20646f20436f6e747261746f2064652053616d706c657300000081525060009080519060200190620000a092919062000104565b506040518060400160405280601f81526020017f436f6e747261746f207061726120636f6d7072612064652053616d706c65730081525060019080519060200190620000ee92919062000104565b50670de0b6b3a7640000600381905550620001b3565b828054600181600116156101000203166002900490600052602060002090601f016020900481019282601f106200014757805160ff191683800117855562000178565b8280016001018555821562000178579182015b82811115620001775782518255916020019190600101906200015a565b5b5090506200018791906200018b565b5090565b620001b091905b80821115620001ac57600081600090555060010162000192565b5090565b90565b6112ee80620001c36000396000f3fe6080604052600436106100dd5760003560e01c8063ce0a3c051161007f578063e0e7127a11610059578063e0e7127a14610513578063e367a0021461056a578063f408df11146105a2578063f754dd9b146105dd576100dd565b8063ce0a3c0514610404578063d12bcb1214610455578063d97291c8146104e5576100dd565b80636617f71a116100bb5780636617f71a1461020657806366e721221461028157806382e883e2146102ac5780639e31748614610374576100dd565b80630f176d18146100e25780635aff3a051461012757806365f9eaa6146101b7575b600080fd5b3480156100ee57600080fd5b506101256004803603604081101561010557600080fd5b8101908080359060200190929190803590602001909291905050506106a5565b005b34801561013357600080fd5b506101606004803603602081101561014a57600080fd5b810190808035906020019092919050505061077e565b6040518080602001828103825283818151815260200191508051906020019060200280838360005b838110156101a3578082015181840152602081019050610188565b505050509050019250505060405180910390f35b3480156101c357600080fd5b506101f0600480360360208110156101da57600080fd5b8101908080359060200190929190505050610822565b6040518082815260200191505060405180910390f35b34801561021257600080fd5b5061023f6004803603602081101561022957600080fd5b8101908080359060200190929190505050610842565b604051808273ffffffffffffffffffffffffffffffffffffffff1673ffffffffffffffffffffffffffffffffffffffff16815260200191505060405180910390f35b34801561028d57600080fd5b50610296610882565b6040518082815260200191505060405180910390f35b3480156102b857600080fd5b50610372600480360360208110156102cf57600080fd5b81019080803590602001906401000000008111156102ec57600080fd5b8201836020820111156102fe57600080fd5b8035906020019184600183028401116401000000008311171561032057600080fd5b91908080601f016020809104026020016040519081016040528093929190818152602001838380828437600081840152601f19601f82011690508083019250505050505050919291929050505061088c565b005b34801561038057600080fd5b5061038961094c565b6040518080602001828103825283818151815260200191508051906020019080838360005b838110156103c95780820151818401526020810190506103ae565b50505050905090810190601f1680156103f65780820380516001836020036101000a031916815260200191505b509250505060405180910390f35b34801561041057600080fd5b506104536004803603602081101561042757600080fd5b81019080803573ffffffffffffffffffffffffffffffffffffffff1690602001909291905050506109ee565b005b34801561046157600080fd5b5061046a610ad8565b6040518080602001828103825283818151815260200191508051906020019080838360005b838110156104aa57808201518184015260208101905061048f565b50505050905090810190601f1680156104d75780820380516001836020036101000a031916815260200191505b509250505060405180910390f35b610511600480360360208110156104fb57600080fd5b8101908080359060200190929190505050610b7a565b005b34801561051f57600080fd5b50610528610db4565b604051808273ffffffffffffffffffffffffffffffffffffffff1673ffffffffffffffffffffffffffffffffffffffff16815260200191505060405180910390f35b6105a06004803603604081101561058057600080fd5b810190808035906020019092919080359060200190929190505050610dde565b005b3480156105ae57600080fd5b506105db600480360360208110156105c557600080fd5b8101908080359060200190929190505050610fed565b005b3480156105e957600080fd5b506106a36004803603602081101561060057600080fd5b810190808035906020019064010000000081111561061d57600080fd5b82018360208201111561062f57600080fd5b8035906020019184600183028401116401000000008311171561065157600080fd5b91908080601f016020809104026020016040519081016040528093929190818152602001838380828437600081840152601f19601f82011690508083019250505050505050919291929050505061109d565b005b6004600083815260200190815260200160002060000160009054906101000a900473ffffffffffffffffffffffffffffffffffffffff1673ffffffffffffffffffffffffffffffffffffffff163373ffffffffffffffffffffffffffffffffffffffff161461075f576040517f08c379a000000000000000000000000000000000000000000000000000000000815260040180806020018281038252603281526020018061124b6032913960400191505060405180910390fd5b8060046000848152602001908152602001600020600101819055505050565b60606004600083815260200190815260200160002060020180548060200260200160405190810160405280929190818152602001828054801561081657602002820191906000526020600020905b8160009054906101000a900473ffffffffffffffffffffffffffffffffffffffff1673ffffffffffffffffffffffffffffffffffffffff16815260200190600101908083116107cc575b50505050509050919050565b600060046000838152602001908152602001600020600101549050919050565b60006004600083815260200190815260200160002060000160009054906101000a900473ffffffffffffffffffffffffffffffffffffffff169050919050565b6000600354905090565b600260009054906101000a900473ffffffffffffffffffffffffffffffffffffffff1673ffffffffffffffffffffffffffffffffffffffff163373ffffffffffffffffffffffffffffffffffffffff1614610932576040517f08c379a000000000000000000000000000000000000000000000000000000000815260040180806020018281038252602581526020018061127d6025913960400191505060405180910390fd5b806000908051906020019061094892919061115d565b5050565b606060008054600181600116156101000203166002900480601f0160208091040260200160405190810160405280929190818152602001828054600181600116156101000203166002900480156109e45780601f106109b9576101008083540402835291602001916109e4565b820191906000526020600020905b8154815290600101906020018083116109c757829003601f168201915b5050505050905090565b600260009054906101000a900473ffffffffffffffffffffffffffffffffffffffff1673ffffffffffffffffffffffffffffffffffffffff163373ffffffffffffffffffffffffffffffffffffffff1614610a94576040517f08c379a000000000000000000000000000000000000000000000000000000000815260040180806020018281038252602581526020018061127d6025913960400191505060405180910390fd5b80600260006101000a81548173ffffffffffffffffffffffffffffffffffffffff021916908373ffffffffffffffffffffffffffffffffffffffff16021790555050565b606060018054600181600116156101000203166002900480601f016020809104026020016040519081016040528092919081815260200182805460018160011615610100020316600290048015610b705780601f10610b4557610100808354040283529160200191610b70565b820191906000526020600020905b815481529060010190602001808311610b5357829003601f168201915b5050505050905090565b600073ffffffffffffffffffffffffffffffffffffffff166004600083815260200190815260200160002060000160009054906101000a900473ffffffffffffffffffffffffffffffffffffffff1673ffffffffffffffffffffffffffffffffffffffff161415610c36576040517f08c379a00000000000000000000000000000000000000000000000000000000081526004018080602001828103825260218152602001806112a26021913960400191505060405180910390fd5b34600460008381526020019081526020016000206001015414610ca4576040517f08c379a00000000000000000000000000000000000000000000000000000000081526004018080602001828103825260248152602001806112276024913960400191505060405180910390fd5b6004600082815260200190815260200160002060000160009054906101000a900473ffffffffffffffffffffffffffffffffffffffff1673ffffffffffffffffffffffffffffffffffffffff166108fc60046000848152602001908152602001600020600101549081150290604051600060405180830381858888f19350505050158015610d36573d6000803e3d6000fd5b50600460008281526020019081526020016000206002013390806001815401808255809150509060018203906000526020600020016000909192909190916101000a81548173ffffffffffffffffffffffffffffffffffffffff021916908373ffffffffffffffffffffffffffffffffffffffff1602179055505050565b6000600260009054906101000a900473ffffffffffffffffffffffffffffffffffffffff16905090565b600073ffffffffffffffffffffffffffffffffffffffff166004600084815260200190815260200160002060000160009054906101000a900473ffffffffffffffffffffffffffffffffffffffff1673ffffffffffffffffffffffffffffffffffffffff1614610eb6576040517f08c379a00000000000000000000000000000000000000000000000000000000081526004018080602001828103825260168152602001807f53616d706c65206ac3a120706f7373756920646f6e6f0000000000000000000081525060200191505060405180910390fd5b6003543414610f10576040517f08c379a00000000000000000000000000000000000000000000000000000000081526004018080602001828103825260248152602001806112036024913960400191505060405180910390fd5b336004600084815260200190815260200160002060000160006101000a81548173ffffffffffffffffffffffffffffffffffffffff021916908373ffffffffffffffffffffffffffffffffffffffff160217905550806004600084815260200190815260200160002060010181905550600260009054906101000a900473ffffffffffffffffffffffffffffffffffffffff1673ffffffffffffffffffffffffffffffffffffffff166108fc349081150290604051600060405180830381858888f19350505050158015610fe8573d6000803e3d6000fd5b505050565b600260009054906101000a900473ffffffffffffffffffffffffffffffffffffffff1673ffffffffffffffffffffffffffffffffffffffff163373ffffffffffffffffffffffffffffffffffffffff1614611093576040517f08c379a000000000000000000000000000000000000000000000000000000000815260040180806020018281038252602581526020018061127d6025913960400191505060405180910390fd5b8060038190555050565b600260009054906101000a900473ffffffffffffffffffffffffffffffffffffffff1673ffffffffffffffffffffffffffffffffffffffff163373ffffffffffffffffffffffffffffffffffffffff1614611143576040517f08c379a000000000000000000000000000000000000000000000000000000000815260040180806020018281038252602581526020018061127d6025913960400191505060405180910390fd5b806001908051906020019061115992919061115d565b5050565b828054600181600116156101000203166002900490600052602060002090601f016020900481019282601f1061119e57805160ff19168380011785556111cc565b828001600101855582156111cc579182015b828111156111cb5782518255916020019190600101906111b0565b5b5090506111d991906111dd565b5090565b6111ff91905b808211156111fb5760008160009055506001016111e3565b5090565b9056fe507265c3a76f2064652061646963696f6e61722073616d706c6520696e636f727265746f507265c3a76f20646520636f6d7072612064612073616d706c6520696e76c3a16c69646f4170656e6173206f20646f6e6f2064612073616d706c6520706f646520616c7465726172206f20707265c3a76f2064656c614f6e6c792074686520636f6e7472616374206f776e65722063616e2063616c6c207468697353616d706c65206ec3a36f20657869737465206f7520706f7373756920646f6e6fa165627a7a72305820793ddadf54b178694efbc83556c5795d712ba0002a9555978ce08daa3f72305e0029",
  "source": "pragma solidity ^0.5.0;\r\n\r\n// Referências de contratos\r\n//https://github.com/pbrudny/learning-solidity-2018/blob/master/06_lottery_multiple_winners/06_lottery_multiple_winners.sol\r\n//https://github.com/fabiojose/ethereum-ex/blob/master/contracts/Deal.sol\r\n//https://github.com/thiagola92/BlockchainProject/blob/5bbcdfe858c333d646b346350bf5092163018da0/contracts/Samples.sol\r\n\r\ncontract Samples {\r\n\r\n  // Informações gerais do contrato\r\n  string private contract_title;\r\n  string private contract_description;\r\n  address payable private contract_owner_address;\r\n  uint private contract_price_to_add_sample; // wei\r\n\r\n  // Struct que representa as informações da Sample\r\n  struct Sample {\r\n    address payable sample_owner_address;\r\n    uint sample_price; // wei\r\n\r\n    address[] sample_buyers;\r\n  }\r\n\r\n  // Dado um hash, eu consigo identificar uma sample\r\n  mapping(uint256 => Sample) private sample_list;\r\n\r\n  // Uma compra precisa saber o comprador e qual sample foi comprada\r\n  // struct Purchase {\r\n  //   address customer_address;\r\n  //   uint256 sample_bought;\r\n  //   uint sample_price;\r\n  // }\r\n\r\n  // Uma lista de todas as compras de samples\r\n  // Purchase[] private sample_purchase;\r\n\r\n  constructor() public {\r\n    contract_owner_address = msg.sender;\r\n    contract_title = \"Titulo do Contrato de Samples\";\r\n    contract_description = \"Contrato para compra de Samples\";\r\n    contract_price_to_add_sample = 1000000000000000000 wei;\r\n  }\r\n\r\n  modifier isContractOwner {\r\n    require(msg.sender == contract_owner_address, \"Only the contract owner can call this\");\r\n    _;\r\n  }\r\n\r\n  function getContractTitle() public view returns (string memory) {\r\n    return contract_title;\r\n  }\r\n\r\n  function getContractDescription() public view returns (string memory) {\r\n    return contract_description;\r\n  }\r\n\r\n  function getContractOwnerAddress() public view returns (address) {\r\n    return contract_owner_address;\r\n  }\r\n\r\n  function getContractPriceToAddSample() public view returns (uint256) {\r\n    return contract_price_to_add_sample;\r\n  }\r\n\r\n  function getSamplePrice(uint256 sample_hash) public view returns (uint) {\r\n    return sample_list[sample_hash].sample_price;\r\n  }\r\n\r\n  function getSampleOwner(uint256 sample_hash) public view returns (address) {\r\n    return sample_list[sample_hash].sample_owner_address;\r\n  }\r\n\r\n  function getSampleHistoric(uint256 sample_hash) public view returns (address[] memory) {\r\n    return sample_list[sample_hash].sample_buyers;\r\n  }\r\n\r\n  function setContractTitle(string memory _contract_title) public isContractOwner {\r\n    contract_title = _contract_title;\r\n  }\r\n\r\n  function setContractDescription(string memory _contract_description) public isContractOwner {\r\n    contract_description = _contract_description;\r\n  }\r\n\r\n  function setContractOwnerAddress(address payable _contract_owner_address) public isContractOwner {\r\n    contract_owner_address = _contract_owner_address;\r\n  }\r\n\r\n  function setContractPriceToAddSample(uint _contract_price_to_add_sample) public isContractOwner {\r\n    contract_price_to_add_sample = _contract_price_to_add_sample;\r\n  }\r\n\r\n  function setSamplePrice(uint256 sample_hash, uint _sample_price) public {\r\n    require(msg.sender == sample_list[sample_hash].sample_owner_address, \"Apenas o dono da sample pode alterar o preço dela\");\r\n\r\n    sample_list[sample_hash].sample_price = _sample_price;\r\n  }\r\n\r\n  // Adiciona uma sample no contrato\r\n  function addSampleOwner(uint256 sample_hash, uint _sample_price) public payable {\r\n      require(sample_list[sample_hash].sample_owner_address == address(0), \"Sample já possui dono\");\r\n      require(msg.value == contract_price_to_add_sample, \"Preço de adicionar sample incorreto\");\r\n\r\n      sample_list[sample_hash].sample_owner_address = msg.sender;\r\n      sample_list[sample_hash].sample_price = _sample_price;\r\n\r\n      contract_owner_address.transfer(msg.value);\r\n  }\r\n\r\n  // Compra uma sample\r\n  function buySample(uint256 sample_hash) public payable {\r\n    require(sample_list[sample_hash].sample_owner_address != address(0), \"Sample não existe ou possui dono\");\r\n    require(sample_list[sample_hash].sample_price == msg.value, \"Preço de compra da sample inválido\");\r\n\r\n    sample_list[sample_hash].sample_owner_address.transfer(sample_list[sample_hash].sample_price);\r\n\r\n    sample_list[sample_hash].sample_buyers.push(msg.sender);\r\n  }\r\n}\r\n",
  "sourcePath": "C:/Users/thiagola92/Desktop/BlockchainPr/contracts/Samples.sol",
  "compiler": {
    "name": "solc",
    "version": "0.5.8+commit.23d335f2.Emscripten.clang"
  },
  "schemaVersion": "3.0.10",
  "updatedAt": "2019-07-05T11:54:49.367Z",
  "devdoc": {
    "methods": {}
  },
  "userdoc": {
    "methods": {}
  }
}